:100000000C94E2030C94FF030C94FF030C94FF0385
:100010000C94FF030C94FF030C94FF030C94FF0358
:100020000C94FF030C94FF030C94422F0C94143097
:100030000C9478250C94FF030C94FF030C94FF039D
:100040000C94FF030C94FF030C94FF030C94FF0328
:100050000C94FF030C94E0250C94FF030C94FF0315
:100060000C94FF030C94FF030C94FF030C94FF0308
:100070000C94FF030C94FF030C94FF030C94FF03F8
:100080000C94FF030C94FF030C94FF030C94FF03E8
:100090000C94FF030C94FF030C94FF030C94FF03D8
:1000A0000C94FF030C94FF030C94FF0357045A04B1
:1000B0005D046004630465046804D607DB07E50794
:1000C000D907DE07E307E1073F0941094C09430966
:1000D0004509470949094B094E09500952095D096B
:1000E0005409560958095A095C095F09161B161B61
:1000F000481B481B7F1B9F1B081D661DE11B661DBF
:100100008E1C8E1CFF1C661D661D601D9B1C9B1C8F
:100110009B1C9B1C9B1C9B1C9B1C9B1C9B1C9B1C27
:100120009B1C9B1C9B1C9B1C9B1C9B1CAC1CB91CE8
:10013000C01CC71CD11CF11DF11D031E031EFA1D9E
:10014000031E031E031EF11DF11DFF1D031E031ED2
:10015000FF1D8130A8309A31A8309A31F430173120
:100160009A316D317C3107634236B79BD8A71A3973
:10017000685618AEBAAB558C1D3CB7CC5763BD6DF5
:10018000EDFD753EF6177231BF000000803F05A8F7
:100190004CCDB2D44EB93836A9020C50B9918688EC
:1001A000083CA6AAAA2ABE000000803F5441500085
:1001B000484F4C44006572676F646F785F657A2FB3
:1001C0006A6F73687275204020302E362E38302DBD
:1001D0006469727479006572676F646F785F657ABD
:1001E0002F6A6F73687275204020302E362E38309B
:1001F0002D6469727479000000F0A129002B003988
:1002000000D45CE00000001E00140004001D00E2A9
:100210000001571F001A0016001B00E104006820AF
:100220000008000700060050002A00210015000900
:100230000019004F000057220017000A00050000B7
:10024000001D0135004C0000002F0000001D032E92
:100250000001530000300000004A0023001C000B86
:1002600000110000004D00240018000D0010005285
:10027000004B0025000C000E00360051002C00261B
:100280000012000F00370050002800270013003331
:100290004238714F004E002D0031003468D55C01AA
:1002A000510000290001000100E100010000003AB6
:1002B000001E022002220201001D013B001F02213C
:1002C0000223020100E3003C002F0226022F00015E
:1002D000002A003D00300227023000010006013EE6
:1002E0000031023500350200001D0101000100004F
:1002F00000010000001D03010001000000010000DA
:10030000004A003F0052005100240200004D00400E
:1003100000240021001E0027004B00410025002280
:10032000001F0027002C0042002600230020003779
:10033000002800430025022E0231002E004E00440A
:100340000045000100E5000100000001000100017E
:100350000001000100000001000100010001000196
:1003600000010001000100F20001000100C75C0172
:1003700000F000F1000100F400C85C01000100F38E
:10038000000100F500010001000100010001000072
:1003900000C15C010001000000010000000100013B
:1003A000000100000001000000C05C01000100012C
:1003B0000001000000DE5C0100010001000100A955
:1003C000000100010001000100AC00AA00C35C01B3
:1003D0000001000100AB00A800C45C0100010001A5
:1003E00000AE000100010001000100530001000106
:1003F00000000000000000000000002A2B28000080
:1004000000000000000000000000000000002900C3
:100410000000002C1E3420212224342627252E36CD
:100420002D3738271E1F202122232425263333363B
:100430002E37381F0405060708090A0B0C0D0E0F8E
:10044000101112131415161718191A1B1C1D2F3111
:1004500030232D350405060708090A0B0C0D0E0F75
:10046000101112131415161718191A1B1C1D2F31F1
:1004700030354C00000000000000000000000000CB
:10048000000000000000000000000000000000006C
:100490000000000001010101010100010101010052
:1004A000000000000000000000000000000100014A
:1004B000000101010101010101010101010101012D
:1004C000010101010101010101010101010100001E
:1004D000000101000000000000000000000000001A
:1004E000000000000000000000000000000001010A
:1004F00001010000046801F000B40078005A007F98
:100500003F1F643214643214783C1E1E140A050026
:1005100000000000010101010101010101020202CC
:10052000020202020202030303030303030304049F
:100530000404040405050505050606060606070766
:100540000707080808080909090A0A0A0A0B0B0B19
:100550000C0C0C0D0D0D0E0E0F0F0F1010111111B4
:100560001212131314141515161617171818191933
:100570001A1A1B1C1C1D1D1E1F1F20202122222396
:1005800024252526272728292A2B2B2C2D2E2F2FD3
:1005900030313233343536363738393A3B3C3D3EEC
:1005A0003F4041424344464748494A4B4C4D4F50D7
:1005B000515253555657585A5B5C5E5F6062636494
:1005C0006667696A6C6D6E707173747678797B7C1E
:1005D0007E8081838486888A8B8D8F919294969871
:1005E0009A9B9D9FA1A3A5A7A9ABADAFB1B3B5B78A
:1005F000B9BBBDBFC1C4C6C8CACCCFD1D3D6D8DA67
:10060000DCDFE1E4E6E8EBEDF0F2F5F7FAFCFF04FD
:10061000033000000016034500720067006F0044BD
:10062000006F007800200045005A000000160345C6
:1006300000720067006F0044006F007800200045E2
:10064000005A0000000403090409026D00040100BF
:10065000A0FA0904000001030101000921110100B1
:10066000012240000705810308000A090401000176
:1006700003010200092111010001224D000705823A
:100680000308000A09040200010300000009211107
:100690000100012236000705830308000A0904034C
:1006A00000010300000009211101000122390007A7
:1006B0000584032000011201100100000008EDFE76
:1006C000071301000102030105010906A101050745
:1006D00019E029E715002501950875018102050833
:1006E000190129059505750191029501750391017F
:1006F0000507190029F71500250195F875018102F4
:10070000C005010980A10185021601002603001A17
:1007100081002A8300751095018100C0050C090134
:10072000A1018503160100269C021A01002A9C02E1
:10073000751095018100C005010902A1010901A1FF
:100740000005091901290515002501950575018187
:1007500002950175038101050109300931158125D3
:100760007F95027508810609381581257F950175E9
:10077000088106050C0A38021581257F9501750848
:100780008106C0C005010906A101050719E029E796
:1007900015002501950875018102950175088101F3
:1007A0000508190129059505750191029501750343
:1007B00091010507190029FF150026FF0095067510
:1007C000088100C011241FBECFEFDAE0DEBFCDBF2D
:1007D00012E0A0E0B1E0EEE1FBE602C005900D9270
:1007E000AE30B107D9F723E0AEE0B2E001C01D9210
:1007F000A13FB207E1F70E94672C0C948D350C9451
:10080000000080B38C7080BB81B3836F81BB08957F
:1008100084B1807F84B985B1807F85B98AB1837FB7
:100820008AB98BB1837F8BB93E9846980895CF9350
:10083000E82F873090F58091000190910101892B7C
:1008400009F048C0CE2F64E670E080E40E94AD0558
:100850009093010180930001892BD1F464E670E04C
:1008600082E10E9404069093010180930001892B8C
:1008700079F481E090E001C0880FCA95EAF764E658
:1008800070E080950E94040690930101809300011E
:1008900084E690E0CF910C94590690E0FC013797E4
:1008A000E730F105B8F4EA5AFF4F0C943F35209A2F
:1008B000289810C0219A29980DC0229A2A980AC017
:1008C000239A2B9807C0529A01C0539A5B9802C092
:1008D0003E9A4698CF910895CF93873008F041C053
:1008E0008091000190910101892B09F043C064E6D9
:1008F00070E080E40E94AD059093010180930001B7
:10090000892B11F0C0E027C064E670E083E10E940B
:1009100004069093010180930001892B99F764E606
:1009200070E081E40E94AD05909301018093000185
:10093000892B41F784E690E00E94340697FF05C0BA
:100940009093010180930001DDCFC82FC0951092D4
:1009500001011092000184E690E00E9459068C2F5C
:100960000AC09FB18FB1807F869586959370892B41
:10097000809501C080E0CF91089508950C94BD0446
:100980000E94EB0690E090930101809300010E9489
:1009900008040E9401042FE032E0E3E6F2E04EE0BA
:1009A0004E0F119280E090E0D901A80FB91F1C9260
:1009B000019686309105C1F72A5F3F4F4E13F1CF64
:1009C0000C94AE0B0E94EB0690E090930101809393
:1009D00000010E9408040E940104E3E6F2E08EE0B8
:1009E0008E0F11928E13FDCF089526E0829FC001D5
:1009F0001124FC01E15FFD4F20E030E080E041E0A8
:100A000050E09081992319F09150908307C0BA016A
:100A1000022E01C0660F0A94EAF7862B2F5F3F4F24
:100A200031962630310569F7089596E0699FB00147
:100A3000112420E030E090E04FE0FC01022E02C0E3
:100A4000F595E7950A94E2F7E0FF06C0F901E60F95
:100A5000F71FE15FFD4F40832F5F3F4F2630310589
:100A600061F70895CF92DF92EF92FF920F931F9359
:100A7000CF93DF938091000190910101892B91F038
:100A800080910E028F5F80930E0281110BC00E9435
:100A9000EB0690E09093010180930001892B11F403
:100AA0000E947D0683E6C82E82E0D82E9AE6E92EC3
:100AB00092E0F92EC0E08C2F0E94170407E00C0F83
:100AC000802F0E9417048C2F0E94F504182F8C2F62
:100AD0000E946C04F6019081D12FD095D9238123F7
:100AE000D82B6C2F8D2F89270E941505F601D193E5
:100AF0006F01802F0E94F504182F802F0E946C0434
:100B0000F7019081D12FD095D9238123D82B602F45
:100B10008D2F89270E941505F701D1937F010E942F
:100B20000804CF5FC73039F60E94B00B81E0DF9137
:100B3000CF911F910F91FF90EF90DF90CF9008958C
:100B4000E82FF0E0ED59FD4F80810895089510924F
:100B5000B9008CE08093B8000895EF92FF920F9354
:100B60001F93CF93DF93182FEB011092BC0084EA00
:100B70008093BC000E94AA257C019091BC0097FD47
:100B80000EC0CF3F8FEFD807C1F30E94AA258E1960
:100B90009F098C179D0788F38EEF9FEF2EC09091D1
:100BA000B900987F983041F09091B900987F9031CA
:100BB00019F08FEF9FEF21C01093BB0084E8809362
:100BC000BC000E94AA258C019091BC0097FD0CC02E
:100BD000CF3F8FEFD807C1F30E94AA25801B910B4E
:100BE0008C179D0788F3D8CF8091B900887F883112
:100BF00011F08034F1F680E090E0DF91CF911F9109
:100C00000F91FF90EF9008950F931F93CF93DF9371
:100C1000EB018093BB0084E88093BC000E94AA256E
:100C20008C019091BC0097FD0EC0CF3F8FEFD8078D
:100C3000C1F30E94AA25801B910B8C179D0788F396
:100C40008EEF9FEF0CC02091B900287F81E090E0EB
:100C5000283211F480E090E0919581959109DF911F
:100C6000CF911F910F9108950F931F93CF93DF930F
:100C7000EC0184E88093BC000E94AA258C0190912D
:100C8000BC0097FD0EC0CF3F8FEFD807C1F30E9485
:100C9000AA25801B910B8C179D0788F38EEF9FEF81
:100CA00003C08091BB0090E0DF91CF911F910F9125
:100CB00008950F931F93CF93DF93EC0184E9809302
:100CC000BC000E94AA258C019091BC0094FF0EC02C
:100CD000CF3F8FEFD807C1F30E94AA25801B910B4D
:100CE0008C179D0788F38EEF9FEF02C080E090E0A5
:100CF000DF91CF911F910F91089556985E98259896
:100D00002D9826982E9827982F988FEF90E0909303
:100D100089008093880090938B0080938A00909341
:100D20008D0080938C00259A2D9A2FEF80E792E01A
:100D3000215080409040E1F700C00000269A2E9A92
:100D40002FEF80E792E0215080409040E1F700C013
:100D50000000279A2F9A2FEF80E792E021508040E1
:100D60009040E1F700C0000025982D982FEF80E714
:100D700092E0215080409040E1F700C000002698AA
:100D80002E982FEF80E792E0215080409040E1F7CD
:100D900000C0000027982F9856985E9825982D98A7
:100DA00026982E9827982F98089589EA8093800096
:100DB00089E08093810024982C983F988AB18F7C99
:100DC0008AB96E98479A8BB180638BB9769A0E94E4
:100DD0007D060C94730780E290E09093010180936C
:100DE00000018091710281110EC00E94A70581E06F
:100DF000809371022FEF83ED90E32150804090406B
:100E0000E1F700C0000064E670E080E40E94AD05F8
:100E10009093010180930001892B09F050C064E692
:100E200070E080E00E94040690930101809300012D
:100E3000892B09F044C064E670E080E00E9404065B
:100E40009093010180930001892BC9F564E670E05D
:100E50008FE30E9404069093010180930001892B87
:100E600071F584E690E00E94590664E670E080E443
:100E70000E94AD059093010180930001892BF9F444
:100E800064E670E08CE00E94040690930101809378
:100E90000001892BA1F464E670E080E00E94040662
:100EA0009093010180930001892B49F464E670E07E
:100EB0008FE30E940406909301018093000184E671
:100EC00090E00E945906809100010895611108C0C8
:100ED000FC018281882321F086ED91E00E94AB0B1A
:100EE00080E090E008950895CF93FB018D3D2CE5BF
:100EF000920799F020F48C3D9C4549F039C08E3D15
:100F00002CE5920799F08F3D9C45B9F031C0C28124
:100F1000CC2379F10E94702407C0C281CC2349F10F
:100F200085EB91E00E94AB0BC0E023C0C281CC23D3
:100F300001F181E00E944312F7CFC281CC2339F046
:100F40000E94AA259093730280937202EDCF809144
:100F50007202909173020E94B6258739910518F0AC
:100F600080EB91E002C08CEA91E00E94AB0B01C0E3
:100F7000C1E08C2FCF910895CF92DF92EF92FF9234
:100F80006B017C010E94202456985E9825982D982C
:100F900026982E9827982F9890E0FC013197E730FB
:100FA000F105A8F4E35AFF4F0C943F35259A2D9A8A
:100FB0000EC0259A2D9A269A2E9A09C0259A2D9A06
:100FC00004C0259A2D9A269A2E9A279A2F9AC701FD
:100FD000B601FF90EF90DF90CF9008950F931F938D
:100FE000CF93DF939C013A9521153F4148F5EB01E2
:100FF0008C0190FF03C080EEFB01099511FF03C037
:1010000081EEFE01099512FF03C082EEFE010995F3
:1010100013FF03C083EEFE0109950115104180F016
:1010200084EEFE01099585EEFE01099586EEFE012E
:10103000099587EEFE01DF91CF911F910F910994E1
:10104000DF91CF911F910F910895877091E001C0BA
:10105000990F8A95EAF7892F0E94F7230C94AE2303
:10106000877091E001C0990F8A95EAF7892F0E9455
:10107000F7230C94AE23877091E001C0990F8A95F5
:10108000EAF7892F0E94FD230C94AE23877091E02C
:1010900001C0990F8A95EAF7892F0E94FD230C94CD
:1010A000AE23CF93DF93EC01805E9109089710F097
:1010B000209719F460E378E002C065E278E0CE01A1
:1010C0000E94EE078C2FDF91CF910C946619CF937D
:1010D000DF93EC010E94751ACE01805E910908979A
:1010E00010F0209719F466E478E002C06BE378E032
:1010F000CE01DF91CF910C94EE0781E008950C941E
:1011000074070E94DF1D2FEF84E39CE02150804094
:101110009040E1F700C000000C940626FF920F9368
:101120001F93CF93DF938C01FC01C081D18180910B
:10113000CA02811113C08281882349F0CE010E9426
:101140001023F82E682FCE010E94B32204C0CE01D6
:101150000E94E322F82EBE018F2D04C0CE010E9412
:101160001023BE010E94C80BEC01B8010E94E216D8
:10117000B801CE010E947F08882309F48CC2B8010F
:10118000CE010E942417882309F485C2B801CE013C
:101190000E94320E882309F47EC2B801CE010E945B
:1011A000810E882309F477C2C93CFCE5DF0741F4CE
:1011B000F8018281882309F46EC20E9436106BC246
:1011C000CA3C8CE5D80708F013C1C13C9CE5D9079F
:1011D00061F4F8018281882309F45DC20E94E12351
:1011E0008272F1F00E94501256C2C23CECE5DE075A
:1011F000D0F0F8018281C53CFCE5DF0709F4CDC0E1
:1012000008F0DDC0C33CECE5DE0709F4CCC008F013
:10121000D0C0882309F43FC20E94E123827211F3F7
:101220000E94461238C2C531FCE5DF0708F07EC0D7
:10123000C2308CE5D80708F452C0F80182818823B7
:1012400009F459C00E949124811102C00E947024A7
:101250000E94A42490E09093E3038093E203FE01B4
:10126000E350FC45E231F10530F4EC59FF4F809139
:10127000E2030C943F358091E203816027C08260D5
:1012800025C0846023C0806121C080621FC080644B
:101290001DC080681BC08460886018C08E7F16C027
:1012A0008D7F14C08B7F12C08F7E10C08F7D0EC0CB
:1012B0008F7B0CC08F770AC08B7F877F07C087FB2F
:1012C000222720F991E0922790FB87F98093E2038F
:1012D0008091E2030E94A8240E94DF1DDCC1C11599
:1012E0009CE5D90781F0C130DC45A9F081E080930D
:1012F000790280937A02C801DF91CF911F910F91FB
:10130000FF900C947D08F8018281882309F4C3C101
:101310000E948108C0C1F8018281882309F4BBC101
:1013200080916903816080936903B5C1C531FCE593
:10133000DF0739F50E94E123282FF80182814091CF
:10134000350150913601882379F02A7A91E009F429
:1013500090E090937402911102C069E201C065E3CC
:10136000CA010E9409250AC080917402811102C03D
:1013700069E201C065E3CA010E9414250E94AE2300
:101380008AC1C03CDC4509F0B1CFF80182818823D5
:1013900009F481C10E94AE127EC1882309F47BC189
:1013A0000E949C1178C1882309F475C10E946511BF
:1013B00072C1882309F46FC10E947D116CC1C73CC2
:1013C0009CE5D90731F4882309F465C10E94C01156
:1013D00062C1C83CDC4530F4882309F45CC10E943A
:1013E000AE1159C1882309F456C10E94DB1153C1C3
:1013F000C13DFCE5DF0749F4F8018281882309F447
:101400004AC188E10E94431246C1C23D8CE5D8071B
:1014100008F087C0F8018281CD3CFCE5DF07A1F42C
:10142000882309F438C10E942810663071058105AF
:10143000910540F00E9428106830710581059105E2
:1014400008F4EECE86E0DECFCE3C9CE5D90730F541
:10145000CB3CECE5DE0729F4882309F41CC181E0CC
:10146000D1CFCC3CDC4530F4882309F414C10E9470
:101470004B1011C1882309F40EC10E94281062305C
:1014800071058105910540F00E94281065307105B5
:101490008105910508F4C4CE82E0B4CFCF3C9CE531
:1014A000D907A1F4882309F4F6C00E9428106F30F0
:1014B00071058105910540F00E9428106431710585
:1014C0008105910508F4ACCE8FE09CCFC03DDC4592
:1014D000A0F4882309F4DFC00E9428106930710548
:1014E0008105910540F00E9428106E30710581053C
:1014F000910508F495CE89E085CF882309F4CBC007
:101500000E942810653171058105910540F00E9407
:101510002810673171058105910508F481CE85E1B8
:1015200071CFC53DFCE5DF0781F5F8018281882395
:1015300061F010927A020E94AA259093780280931B
:10154000770280E20E94D41AA6C00E94E12381FFA4
:1015500005C081E08093790280937A0280917A02BB
:1015600081110FC080917702909178020E94B62578
:10157000883C910530F487E20E94661987E20E9458
:10158000751A80E20E94DB1A86C0C63D8CE5D8073A
:1015900008F04CC0F8018281C33DFCE5DF0729F467
:1015A000882309F478C083E22DCFC43DDC45A0F444
:1015B000882309F470C00E942810693171058105E3
:1015C000910540F00E942810623271058105910555
:1015D00008F426CE89E116CF882351F010927902C3
:1015E0000E94AA25909376028093750282E0AACF8A
:1015F0000E94E12385FF05C081E0809379028093FA
:101600007A028091790281110FC0809175029091C8
:1016100076020E94B625883C910530F486E20E944D
:10162000661986E20E94751A82E0ACCFC93DECE5EE
:10163000DE0731F4F8018281882369F180E009C076
:10164000CA3DFCE5DF0741F4F8018281882319F1E6
:1016500082E00E94052D1FC0C63DDC4509F046CE44
:10166000F8018281811165CF80917A02811189CF41
:1016700080917702909178020E94B625883C91056E
:1016800008F07FCF80E20E94DB1A88E20E94661990
:1016900088E20E94751A80E0DF91CF911F910F912F
:1016A000FF900895CF93282F30E0F901ED50FC4FC3
:1016B000C491F901ED58FB4F2491222359F081EE9A
:1016C0000E9466198C2F0E9466198C2F0E94751A31
:1016D00081EE04C08C2F0E9466198C2FCF910C9440
:1016E000751A0F931F93CF93DF93EC01062FFE0122
:1016F0008491882359F19E012F5F3F4F813041F43F
:10170000E901F9011491812F0E946619812F0DC002
:10171000823031F4E901F90184910E9466190AC00E
:10172000833031F4E901F90184910E94751A02C0F5
:101730000E94520B2196802F8823C9F2EFE9FFE027
:101740003197F1F700C000008150F6CFDF91CF91C3
:101750001F910F91089560E00C94710B0C94D506C5
:101760000E9480170C94BE04282F2F7041F0822F06
:1017700090E02A3010F44D9608950697089587E278
:1017800090E0089508950C94C20B0C94C30B089537
:1017900096E0799FF001112494E5899FE00DF11DF9
:1017A0001124E60FF11DEE0FFF1FE550FE4F85914E
:1017B00094910895880F991FFC01E950FE4F85917F
:1017C00094910895CF93DF930E94C80B0E94910DCE
:1017D000EC01811520E59207F0F5811530E49307BF
:1017E00008F021C1883E910500F5803E910508F082
:1017F00094C1883A910570F4853A910508F0A3C028
:101800008130910509F489C108F440C1049708F0BA
:1018100084C13CC18D3B910508F4A0C0803C91057A
:1018200008F434C1805C9109F0C08115904258F4ED
:10183000C11581E0D80708F070C1C03FD10508F498
:1018400025C1D0656AC1C11590E3D90708F0E1C090
:10185000CE019F70DAC0811525E5920708F043C0DC
:10186000811534E5930708F0F5C0811542E594072A
:1018700008F5C11581E5D80708F0D8C02C2F2370D2
:1018800081E090E002C0880F991F2A95E2F79C68DA
:101890009E0174E0369527957A95E1F72370922B97
:1018A000CF70C695C69540E2C49FE0011124C82BB5
:1018B000D92B33C1869586959E0123703327C11598
:1018C000D34508F0B8C040E2849FC0011124C1E0B4
:1018D000D0E002C0CC0FDD1F2A95E2F78C2B9D2BA8
:1018E000EC01DC681AC181152AE5920798F481158C
:1018F00039E5930708F0B9C08115964508F4AFC0E3
:10190000C11588E5D80708F4C1C0DC2FCC27C06F0B
:10191000D06A03C1C1159BE5D90708F4B7C0C1154A
:101920002CE5D20708F4AFC0CE0190568115904245
:1019300008F0ACC08D2F8F710E940E0EDD27D06293
:101940008F71D82BEAC0853A910509F4A2C0863A76
:10195000910509F0A1C0C2E8D0E4DFC0883A910542
:1019600009F49DC0893A910509F49CC08A3A910511
:1019700009F49BC08B3A910509F49AC08C3A910501
:1019800009F499C08B3B910509F498C08C3B9105F3
:1019900009F497C08D3A910509F496C0803B9105F2
:1019A00009F495C08E3A910509F494C08F3A9105D7
:1019B00009F493C0813B910509F492C0823B9105E3
:1019C00009F491C0833B910509F490C0843B9105D3
:1019D00009F48FC0853B910509F48EC0863B9105C3
:1019E00009F48DC0873B910509F48CC0883B9105B3
:1019F00009F48BC0893B910509F48AC08A3B9105A3
:101A000009F489C0C0E0D4E488C00E94DA0BEC017C
:101A100084C0CE019927D3FF03C0EC01D86C7DC0F0
:101A2000EC01D06C7AC0DF70D06A77C0DC2FCC2795
:101A3000C16FD06A72C040E2849FC0011124C1E02E
:101A4000D0E002C0CC0FDD1F2A95E2F7C82BD92BBE
:101A5000DA6863C0D82FCC27C46FD06A5EC0CF715C
:101A6000DD27DC2FCC27D06258C08F70806E90E0CD
:101A7000906A24E0D695C7952A95E1F7CF709C012E
:101A80003C2BE9014AC0DD27D06647C0C0E0D0E06A
:101A900044C0C1E8D0E441C0C3E8D0E43EC0C2EED7
:101AA000D4E43BC0C9EED4E438C0CAEED4E435C0B7
:101AB000C5EBD4E432C0C6EBD4E42FC0C3EBD4E40E
:101AC0002CC0C4EBD4E429C0C7EBD4E426C0CCECD2
:101AD000D4E423C0CDECD4E420C0C3E8D5E41DC0D9
:101AE000CAE8D5E41AC0C2E9D5E417C0C4E9D5E410
:101AF00014C0C1E2D6E411C0C3E2D6E40EC0C4E211
:101B0000D6E40BC0C5E2D6E408C0C6E2D6E405C000
:101B1000C7E2D6E402C0CAE2D6E4CE01DF91CF919B
:101B200008958238910549F1B0F48133910509F4A3
:101B300058C048F48932910509F44EC08A329105A3
:101B400009F454C008958533910509F440C08933E0
:101B5000910599F00895833E910529F138F4803E6E
:101B6000910591F0823E9105A1F00895863E910580
:101B7000F9F0873E910531F108952091E20320FDAF
:101B80003AC021FD38C008958091E20380FD35C040
:101B900032C08091E20382FF32C08091E20384FD73
:101BA00030C083EE39C08091E20382FD28C0F5CFBA
:101BB0008091E20383FF27C08091E20384FD21C06E
:101BC00087EE2AC08091E20383FD1DC0F5CF80918E
:101BD000E20385FD1AC01BC08091E20385FD17C09A
:101BE00014C08091E20386FD14C015C08091E20309
:101BF00086FD11C00EC080EE0FC089E30DC082EEDD
:101C00000BC080E009C086EE07C089E205C085E30D
:101C100003C08AE201C081E390E008959091E2035D
:101C200092FF0DC0282F2871283019F4877F846017
:101C300006C0282F2471243011F48B7F886093FF15
:101C40000DC0282F2871283119F4877E846106C0C1
:101C5000282F2471243111F48B7E886194FD877EB6
:101C6000089508950F931F93CF93FB0122812111B3
:101C700002C0C1E041C08C01C0918802C11125C0E1
:101C800086319C45B1F70E94310E81E08093880235
:101C90000E94AA25909387028093860210927B026D
:101CA00010927D0210927C0210927F0210927E02AE
:101CB000109281021092800210928302109282028E
:101CC000109285021092840217C080918602909132
:101CD00087020E94B6258C32914058F690917B0283
:101CE000E92FF0E0EE0FFF1FE458FD4F1183008352
:101CF0009F5F90937B02C0E08C2FCF911F910F913B
:101D00000895CF93DF93813020E89207D0F0FB0154
:101D100022812223B1F0EC0180918902811109C056
:101D20008CE090E00E9445350E94A50E81E08093F2
:101D300089020E94AC0ECE019F770E94740F0E9410
:101D4000280F81E0DF91CF91089580938A02682F58
:101D50008CE090E00C945935E0913501F09136011A
:101D6000808180939A0381FF03C081EE0E94751ADF
:101D700080919A0385FF03C085EE0E94751A8091B9
:101D80009A0380FF03C080EE0E94751A80919A0327
:101D900084FF03C084EE0E94751A80919A0382FF2B
:101DA00003C082EE0E94751A80919A0386FF03C0D9
:101DB00086EE0E94751A80919A0383FF03C083EE1A
:101DC0000E94751A80919A0387FF03C087EE0E94D4
:101DD000751A80918A02823001F1A8F48823C9F033
:101DE000813079F580EE0E94661981EE0E946619B5
:101DF00088E10E94661988E10E94751A81EE0E94AE
:101E0000751A80EE1CC0843081F08530D1F486EEE6
:101E100001C082EE0E94661914C082EE0E9466190B
:101E200087E50E94661987E50AC086EE0E9466195A
:101E300086EE0E94751A88E10E94661988E10E9468
:101E4000751A8FE39CE90197F1F700C0000008952F
:101E500080918A02813049F030F0823021F0853063
:101E600051F486EE06C082EE04C08CE20E94661930
:101E70008CE20E94751A80919A0381FF03C081EE63
:101E80000E94661980919A0385FF03C085EE0E9427
:101E9000661980919A0380FF03C080EE0E94661944
:101EA00080919A0384FF03C084EE0E94661980919A
:101EB0009A0382FF03C082EE0E94661980919A0302
:101EC00086FF03C086EE0E94661980919A0383FF05
:101ED00003C083EE0E94661980919A0387FF03C0B6
:101EE00087EE0C9466190895EF92FF921F93CF939B
:101EF000DF937C01CCE0D0E097010C2E02C0369538
:101F000027950A94E2F7122F1F70812F0E94B40BBD
:101F10000E946619812F0E94B40B0E94751A2497A3
:101F2000CC3F8FEFD80741F7DF91CF911F91FF9002
:101F3000EF900895EF92FF920F931F93CF93DF934B
:101F4000E901662309F44BC0242F30E0EFEFF0E005
:101F5000E61BF109B901E69F9001E79F300DF69F5E
:101F6000300D1124232F8B01031B11095CE3E52E97
:101F7000F12CB7010E941735FB01BC01069FC0017F
:101F8000079F900D169F900D1124B7010E941735E1
:101F9000E230F105B1F040F4309779F0319711F566
:101FA000832F242F461B21C0E430F105A1F068F0F7
:101FB0003597C1F4842F861B18C0832F262F230F3B
:101FC00014C0862F830FE42F03C0E42FE61B842F59
:101FD000432F2E2F0AC0842F462F430F06C0842F75
:101FE000242F03C080E020E040E0E42FF0E0E15F38
:101FF000FA4F4491E22FF0E0E15FFA4F9491E82F1D
:10200000F0E0E15FFA4FE49149839883EA83DF913E
:10201000CF911F910F91FF90EF90089588E090E08D
:102020000C944D35AB01BC0188E090E00C946B350D
:10203000EBE9F3E083E0808310929C038FEF8283CF
:102040008383148260817181828193810C94121048
:1020500060919B0360FF06C066956F7370E080E03F
:1020600090E0089560E070E0CB01089580919F03B7
:1020700090E001968430910514F083E090E0809325
:102080009F0360919B0370919C0380919D039091AD
:102090009E030C94121080919F0390E0019797FF8C
:1020A00002C080E090E08430910514F083E090E07D
:1020B00080939F0360919B0370919C0380919D038B
:1020C00090919E030C94121080919B0380FF06C098
:1020D0006FE070E080EA93E00C940B1680E090E0F3
:1020E000FC01E056FC4F11821082128204968C3360
:1020F0009105B1F7EDCF90919B0390FF0FC020E0C9
:1021000030E0F901E056FC4F8183608342832C5F0D
:102110003F4F2C333105A9F70C9464100895CF93E9
:10212000DF9300D000D0CDB7DEB720919B0320FF16
:102130000AC09E012F5F3F4F0E949A0F4B81698119
:102140008A810E947B100F900F900F900F90DF916B
:10215000CF9108955F926F927F928F929F92AF92EC
:10216000BF92CF92DF92EF92FF920F931F93CF9384
:10217000DF9300D000D0CDB7DEB78C01E62EF42E71
:10218000522E80919B0380FF89C0982F9E779230BA
:1021900061F49E012F5F3F4FC8010E949A0F4B814F
:1021A00069818A810E947B1059C0E82FE695EF7300
:1021B0009EE39E0F9F73943018F4F0909E034EC0E0
:1021C0009AE39E0F9F73993068F4881F8827881FB1
:1021D00090919C03292F220F022F082B97FB112788
:1021E00010F93CC087E28E0F8F738A30B8F5F0E0AB
:1021F0007997E0FD02C021E001C02FEFEE7FEB50A8
:10220000FB4F859194916FE070E00E941735260393
:102210004001279F900C1124580188E9A81A8EEFDD
:10222000B80A80EAC82E83E0D82E98E6692E772473
:102230007394C501B3010E94173596014F2D6E2D81
:102240000E949A0FA80CB91C84E0C80ED11C8CED1A
:10225000C81683E0D80669F70E94641080919B033A
:1022600000FB87F980939B03902F969580919C03A8
:102270008078892B10FB87F980939C03E0929D0363
:10228000F0929E03552051F060919B0370919C0346
:1022900080919D0390919E030E9412100F900F90C9
:1022A0000F900F90DF91CF911F910F91FF90EF90C2
:1022B000DF90CF90BF90AF909F908F907F906F9066
:1022C0005F90089521E00C94AA10EBE9F3E02081DF
:1022D000221F2227221F30919C03432F440F842F5B
:1022E000822B37FB992790F90C9668E671E00E94E3
:1022F0002B35438162810C94621120919B03221F34
:102300002227221F30919C03432F440F842F822BBE
:1023100037FB992790F98C3091051CF4845A9E4F15
:1023200001C00C9768E671E00E942B3540919E0336
:1023300060919D030C946211EBE9F3E08081881FAA
:102340008827881F90919C03292F220F97FB99279C
:1023500090F943816FEF822B0C946211EBE9F3E06B
:102360008081881F8827881F90919C03292F220F26
:1023700097FB992790F9438160E0822B0C946211BE
:1023800040919E03842F90E0843F910514F4445FB4
:1023900001C04FEF80919B03881F8827881F909171
:1023A0009C03292F220F97FB992790F960919D0399
:1023B000822B0C94621140919E03842F90E00C9725
:1023C00014F04C5001C040E080919B03881F882787
:1023D000881F90919C03292F220F97FB992790F932
:1023E00060919D03822B0C94621120E00C94AA1042
:1023F00090919B0390FF46C09178811102C092603A
:1024000007C0843210F0966403C08F73880F982B36
:1024100090939B03662351F060919B0370919C0302
:1024200080919D0390919E030E94121080919B03C6
:10243000382F3E77323019F41092A40212C0982F30
:1024400096959F732EE3290F2F73273110F03634A2
:1024500021F491E09093A40204C0995D9F739A3097
:1024600058F3881F8827881F90919C03292F220FDB
:1024700097FB992790F940919E0360919D03822BD1
:102480000C94F511089561E00C94F81180919B0370
:1024900086958F738F5F843208F081E00C9443122D
:1024A00080919B0386958F73815009F483E20C948D
:1024B0004312EBE9F3E080818160808386958F731E
:1024C0000C94431260E00C94F811809169038160D0
:1024D000809369030E949124811104C00E9470249A
:1024E0000E9418100E940E1060939B0370939C032F
:1024F00080939D0390939E036E7761F40E94181061
:102500000E940E1060939B0370939C0380939D0325
:1025100090939E0381E08093A40280919B0380FFAF
:1025200004C086958F730C9462120895EBE9F3E072
:1025300080818E7F808360817181828193810E94FE
:1025400012101092A4022FEF80E792E021508040F9
:102550009040E1F700C000000C94641080919B0350
:1025600080FD0C9496120C945912CF93C82F809131
:10257000A2029091A3020E94B625EC2FF0E0E55F45
:10258000FA4FE491F0E08E179F0708F443C00E94D1
:10259000AA259093A3028093A2026091A10270E009
:1025A00080E090E00E94183320E030E04FE753E4F1
:1025B0000E943B322BED3FE049E450E40E9441345D
:1025C0000E94AE340E94B5322BE43AE34EE25FE360
:1025D0000E94CE3120EF3BEF48ED52E40E9441349F
:1025E0000E94E732462F80919B03881F8827881F0F
:1025F00090919C03292F220F97FB992790F96091C6
:102600009D03822B0E948F108091A10290E0019681
:102610008093A102CF910895CF93C82F80919F02FC
:102620009091A0020E94B625EC2FF0E0E85FFA4FEF
:10263000E491F0E08E179F07E8F00E94AA2590939E
:10264000A00280939F0240919E0360919D03809120
:102650009D0290919E020E948F1080919D02909108
:102660009E02019668E671E00E94173590939E02E3
:1026700080939D02CF910895CF92DF92FF920F93A6
:102680001F93CF93DF93F82E80919B0290919C0231
:102690000E94B625EF2DE695F0E0EB5FFA4FE4914E
:1026A000F0E08E179F07E8F10E94AA2590939C0204
:1026B00080939B0200EA13E0C0E0D0E088E6C82ED9
:1026C000DD24D3948091990290919A028C0F9D1FE2
:1026D000B6010E941735980140919E0360919D03B9
:1026E0000E949A0F68960C5F1F4FC83681E0D8078A
:1026F00049F70E9464102091990230919A02F0FEED
:102700000AC0C9010196BE010E94173590939A0232
:102710008093990206C02150310930939A02209388
:102720009902DF91CF911F910F91FF90DF90CF9091
:102730000895AF92BF92CF92DF92EF92FF920F93E4
:102740001F93CF93DF93C82F80FF02C01FEF01C0FC
:1027500011E080919702909198020E94B625C6954B
:10276000EC2FF0E0EE5FFA4FE491F0E08E179F0758
:1027700008F466C00E94AA2590939802809397025D
:1027800020EAC22E23E0D22E32EAE32E33E0F32EEB
:10279000C0E0D0E0F70131971082F6011082F70116
:1027A000108294E0A92EB12C00E080919602800F57
:1027B00087FD815F082E000C990BC817D907E9F433
:1027C00080919E038A9DA0018B9D500D11245595EB
:1027D00047955595479580919B03881F8827881FAB
:1027E00090919C03592F550F97FB992790F99601CB
:1027F00060919D03852B0E949A0F010FF1E0AF1AA3
:10280000B10899F6219684E0C80ED11CE4E0EE0EE2
:10281000F11CCF30D10509F0BDCF0E94641080912A
:102820009602113031F4811102C08EE007C0815050
:1028300005C090E00196BE010E942B358093960260
:10284000DF91CF911F910F91FF90EF90DF90CF908C
:10285000BF90AF9008950F931F93CF93DF93C82F2E
:1028600080919402909195020E94B625EC2FF0E0A1
:10287000E150FB4FE491F0E08E179F0708F464C02D
:102880000E94AA25909395028093940280E090E0A4
:10289000FC01E056FC4F11821082128204968C33A8
:1028A0009105B1F7C0E0D0E00FE010E0CE01B80133
:1028B0000E942B35FC0180919302082E000C990B8D
:1028C000EE0FFF1FEE0FFF1FC817D907FCF0809116
:1028D0003301082E000C990B8C179D07BCF09F014B
:1028E00020563C4F80919B03881F8827881F90911A
:1028F0009C03592F550F97FB992790F940919E0300
:1029000060919D03852B0E949A0F05C0E056FC4FF5
:102910001182108212822196CF30D10539F60E94A1
:1029200064108091320190919302980F90939302DA
:1029300020913301280F20933301121614F49E3096
:102940001CF0819580933201DF91CF911F910F91FF
:102950000895EF92FF920F931F93CF93DF9380918F
:102960009102909192020E94B625883E9340D0F148
:102970000E94AA259093920280939102C0918F02A7
:10298000D09190022196C170DD27D0939002C09320
:102990008F0280EAE82E83E0F82E10E008E7812F0E
:1029A0008695FE01E80FF11DCF01817099279701EF
:1029B00040919E0360919D03FC010E9FC0010F9FFB
:1029C000900D11240E949A0F1F5FF4E0EF0EF11C8E
:1029D0001F3029F7DF91CF911F910F91FF90EF905A
:1029E0000C946410DF91CF911F910F91FF90EF90A5
:1029F0000895CF93DF9300D000D0CDB7DEB780919C
:102A00008D0290918E020E94B625E3EFF4E02591AD
:102A1000349182179307C0F180918C0281110CC010
:102A20009E012F5F3F4F4FEF6FEF80E090E00E94DD
:102A30009A0F8A8180938C020E94AA2590938E021D
:102A400080938D0280918B02813051F028F082308A
:102A500061F440918C020AC080918C0240E007C072
:102A600060918C0240E080E003C040E080E060E0E4
:102A70000E947B1080918B0290E0019663E070E0F1
:102A80000E942B3580938B020F900F900F900F9028
:102A9000DF91CF9108958091A4028823B9F190919C
:102AA0009B03892F86958F732EE3280F2F73243075
:102AB00018F482500C94B5122AE3280F2F73233098
:102AC00018F486500C940C1327E3280F2F7326302C
:102AD00018F489500C943C1321E3280F2F732630EF
:102AE00018F48F500C9499132BE2280F2F73233076
:102AF00018F485510C942B14892F8E77803311F4A0
:102B00000C94A914863411F40C94F91408958823B4
:102B100019F05198599A02C0519A59985098589A58
:102B200095E09A95F1F70000509A589895E09A959B
:102B3000F1F70000882311F0519A599885E08A95A1
:102B4000F1F7000008958BB18C7F8BB95098589A9B
:102B50005198599A85E08A95F1F7000008958AB155
:102B60008C7F8AB985E08A95F1F70000519A5998CF
:102B700085E08A95F1F70000509A589885E08A958B
:102B8000F1F7000008955098589A85E08A95F1F77A
:102B900000005198599A85E08A95F1F70000089550
:102BA000CF93DF93D82FC8E08D2F80780E948715B0
:102BB000DD0FC150C9F780E00E94871585E08A9536
:102BC000F1F7000085E08A95F1F7000080E0DF91E1
:102BD000CF9108952BB1342F309523233BB1432B54
:102BE0003FB7F894FC01680F791FE617F70789F0E3
:102BF000819198E04BB9000000C087FF2BB9880F86
:102C0000000000C000C000C02BB900C09A9591F729
:102C1000ECCF3FBF0895AF92BF92CF92DF92EF9279
:102C2000FF920F931F93CF93DF938C01EB01CFB6ED
:102C3000D090BC00F8948091BC008B7F8093BC0046
:102C40000E94A3150E94AF1584E80E94D015CC0FF6
:102C5000DD1FCC0FDD1F78015801AC0EBD1EEA143C
:102C6000FB0431F0F70181917F010E94D015F7CF6D
:102C70000E94C315CFBED092BC00579A40E8BE0157
:102C8000C801DF91CF911F910F91FF90EF90DF90DE
:102C9000CF90BF90AF900C94EA15CF93DF93FC01D7
:102CA0002785211116C0EC0181E0878787810E946A
:102CB000E42388850E94F7230E94AE23EA81FB81EA
:102CC0006A897B89CE010696309719F0DF91CF9102
:102CD0000994DF91CF910895CF93DF93FC01208178
:102CE000223041F4FB01EC01828193810E94510862
:102CF00081E08987DF91CF910895FC018081813047
:102D000021F4FB018081918105C0823029F4FB010F
:102D1000828193810C9451080895FC018081813057
:102D200021F4FB018081918105C0823029F4FB01EF
:102D3000828193810C9467080895EF92FF920F931C
:102D40001F93CF93DF93FC012085211134C0EC0148
:102D5000E380F480F7E5FF1A24E12E9DC0012F9D4A
:102D6000900D1124DC01AE5FBE4F1496ED91FC91E5
:102D7000159752966D917C915397885F9E4F30972F
:102D800009F0099584E18E9D80018F9D100D11241D
:102D90000E5F1E4FF80187810E94EA23F8018085AB
:102DA0000E94FD230E94AE2318821F821986109272
:102DB000A6021092A502DF91CF911F910F91FF9073
:102DC000EF900895DF92EF92FF920F931F93CF93AE
:102DD000DF93FB012281222379F1209134012F3FDF
:102DE00059F18C01C8E0D1E0E12CF12CDD24D39421
:102DF00080913401082E000C990B8E159F05E4F08C
:102E000088818823A1F08B819C810817190739F4E8
:102E10008091A5029091A6020817190741F0DF8260
:102E2000CE0106970E944D16CE010E949D16FFEF1F
:102E3000EF1AFF0A6496DCCFDF91CF911F910F91BB
:102E4000FF90EF90DF900895EF92FF920F931F9302
:102E5000CF93DF939C0137552F3F310511F008F0D8
:102E600047C040913401042E000C550B4217530704
:102E700014F420933401FB017C01828194E1929F40
:102E80008001939F100D1124E801CE5FDE4F8E87E5
:102E900092818E81992311F1FA86E9868F5F8E8364
:102EA0000E94AA259C878B870E941D248F830E94E5
:102EB000E12388870E94F4239885892B8887E881FD
:102EC000F9816A897B89C801885F9E4F309709F034
:102ED0000995F092A602E092A5020AC0882341F06B
:102EE0008F85882329F0C801885F9E4F0E949D1618
:102EF00081E0DF91CF911F910F91FF90EF900895A6
:102F0000CF92DF92EF92FF920F931F93CF93DF93B5
:102F1000809134018F3FC1F1C0E0D4E12C2F30E02B
:102F200080913401082E000C990B8217930764F1ED
:102F3000D29FF001D39FF00D1124EE5FFE4FE08889
:102F4000F188E114F10419F488ECE82EF12CD29FF9
:102F50006001D39FD00C112486010E5F1E4FF80133
:102F60008681882379F0838594850E94B625E816AA
:102F7000F90640F4C8010E944D16C601885F9E4FB5
:102F80000E949D16CF5FCACFDF91CF911F910F9105
:102F9000FF90EF90DF90CF9008959093AC028093D4
:102FA000AB020895E091AB02F091AC02309721F0B2
:102FB0000190F081E02D099480E00895E091AB024A
:102FC000F091AC02309721F00280F381E02D09945A
:102FD0000895E091AB02F091AC02309721F00480AB
:102FE000F581E02D099408952091A9023091AA025B
:102FF0008217930771F09093AA028093A902E0913F
:10300000AB02F091AC02309721F00680F781E02D01
:10301000099408952091A7023091A802821793077E
:1030200071F09093A8028093A702E091AB02F09117
:10303000AC02309721F00084F185E02D09940895C9
:1030400008950C94201881E008950E94A12585B769
:10305000806885BF85B7806885BF0E94C0040E94D4
:1030600038260C946512CF92DF92EF92FF920F9365
:103070001F93CF93DF93CDB7DEB72B970FB6F8949E
:10308000DEBF0FBECDBF0E9432050E942318811102
:1030900011C08FEF89838A831B820E94AA258160D9
:1030A000782F9D838C8349815A816B818D810E9409
:1030B000171956C08EEAC82E82E0D82E00E010E024
:1030C000E02E802F0E94A005F60141916F01F42EA1
:1030D000F82631F40F5F1F4F0E30110589F7D9CF55
:1030E0009091690391FF04C08B870E94A6058B8590
:1030F00020E030E04F2D50E0922FBA01022E02C0A6
:10310000759567950A94E2F760FF24C02E83EF82DD
:1031100021E030E0690102C0CC0CDD1C9A95E2F799
:1031200090E08C219D21892B09F420E028870E94C2
:10313000AA258160782F9A8789874E815F8168856B
:103140008A850E941719F801E255FD4F8081C82633
:10315000C08206C02F5F3F4F2630310569F6BACFD7
:103160000E94CB271091AD020E94D2171817A1F030
:103170000E94D2178093AD022B960FB6F894DEBF53
:103180000FBECDBFDF91CF911F910F91FF90EF90B8
:10319000DF90CF900C94C50B2B960FB6F894DEBF42
:1031A0000FBECDBFDF91CF911F910F91FF90EF9098
:1031B000DF90CF900895DC0111962C9111978C919E
:1031C000682F70E041E050E001C0440F8A95EAF7B3
:1031D00012968C91129730E0882329F08091CC02CE
:1031E0008823E9F006C0F901E454FD4F908194234F
:1031F000B1F086E0829FF001839FF00D1124E60F6D
:10320000F71FEE0FFF1FE95BFE4F808191818D93C9
:103210009C93F901E454FD4F8081482B06C0F901CD
:10322000E454FD4F40958081482340830895CF9317
:10323000DF93CDB7DEB72B970FB6F894DEBF0FBE86
:10324000CDBF942F4F83252F588769877A878B8727
:103250004A855B85452B21F02F3F09F59F3FF9F407
:10326000DE01119686E0FD0111928A95E9F785E06D
:10327000FE01379601900D928A95E1F749815A81B6
:103280006B817C818D819E810E9486202B960FB65A
:10329000F894DEBF0FBECDBFDF91CF910895CE0170
:1032A00007960E94DB18DCCFFC01808191810E948F
:1032B0004F2392959F70963041F48091CC0291E01B
:1032C00089278093CC029093CB020895CF93DF930C
:1032D0001F92CDB7DEB7882309F403C1682F823867
:1032E000C1F40E94D21781FDFCC069E380913501D1
:1032F000909136010E9409250E94AE232FEF81EEA6
:1033000094E0215080409040E1F700C0000069E364
:1033100019C0833811F50E94D21780FDE2C063E521
:1033200080913501909136010E9409250E94AE23BB
:103330002FEF81EE94E0215080409040E1F700C0F3
:10334000000063E580913501909136010E941425BB
:103350000F90DF91CF910C94AE238438C1F40E947A
:10336000D21782FDBEC067E480913501909136018D
:103370000E9409250E94AE232FEF81EE94E0215098
:1033800080409040E1F700C0000067E4DBCF8CEFA5
:10339000860F813A70F4862F69830E94012A698121
:1033A00081119FC080913501909136010E940925BD
:1033B000CFCF80E2860F883048F4677081E001C08B
:1033C000880F6A95EAF70E94E423C2CF8BE5860F47
:1033D000833088F4653A29F0663A31F083E890E06A
:1033E00005C081E890E002C082E890E00F90DF9194
:1033F000CF910C94F41788E5860F853108F071C0E1
:10340000683A61F1693A69F16A3A71F16B3A79F1B6
:103410006C3A81F16B3B89F16C3B91F16D3A99F11A
:10342000603BA1F16E3AA9F16F3AB1F1613BB9F19C
:10343000623BC1F1633BC9F1643BD1F1653BD9F11A
:10344000663BE1F1673BE9F1683BF1F1693BF9F17A
:103450006A3B09F43FC080E090E03EC082EE90E01D
:103460003BC089EE90E038C08AEE90E035C085EB35
:1034700090E032C086EB90E02FC083EB90E02CC050
:1034800084EB90E029C087EB90E026C08CEC90E0C4
:1034900023C08DEC90E020C083E891E01DC08AE855
:1034A00091E01AC082E991E017C084E991E014C06C
:1034B00081E292E011C083E292E00EC084E292E0E9
:1034C0000BC085E292E008C086E292E005C087E288
:1034D00092E002C08AE292E00F90DF91CF910C94CB
:1034E0000A180F90DF91CF910895882309F45BC0EB
:1034F000682F823879F40E94D21781FF54C069E3A3
:1035000080913501909136010E9409250E94AE23D9
:1035100069E310C08338B1F40E94D21780FF43C022
:1035200063E580913501909136010E9409250E9442
:10353000AE2363E580913501909136010E941425F8
:103540000C94AE23843879F40E94D21782FF2BC0EA
:1035500067E480913501909136010E9409250E940F
:10356000AE2367E4E7CF8CEF860F813A18F380E251
:10357000860F883048F4677081E001C0880F6A9533
:10358000EAF70E94EA23DCCF8BE5860F833020F434
:1035900080E090E00C94F417685A653120F480E0E4
:1035A00090E00C940A180895882321F00E94E423E7
:1035B0000C94AE230895882321F00E94EA230C94F2
:1035C000AE2308958F929F92AF92BF92DF92EF92B7
:1035D000FF920F931F93CF93DF937C01D62FC72FBA
:1035E000FC01058102950F70128111110E940424C3
:1035F0000E94A723882379F0112369F080E28D0FC0
:10360000883048F082E00E9490230E94A72391E036
:10361000D82ED92601C0D12CAC2EA2948FE0A8229E
:10362000B12CF501EA58FF4F0C943F358C2F807F69
:10363000CF70882311F0C295C07F112399F0CC235D
:1036400009F4C8C180E28D0F883010F0D11104C098
:103650008C2F0E94E42303C08C2F0E94F7230E942A
:10366000AE23B8C18D2F0E94751ACC2309F42EC247
:1036700080E28D0F883010F0D11104C08C2F0E9491
:10368000EA2303C08C2F0E94FD230E94AE231EC29A
:103690008C2F807FCF70803211F0C295C07FDD23E8
:1036A00019F0D130C9F021C0112371F0002341F08D
:1036B000013031F40E941D248C2B0E94172406C275
:1036C0000E941D248C2B3FC1002319F0013009F406
:1036D000FDC10E941A2411C0112321F0023008F00C
:1036E000F5C107C00111F2C108C0112321F0011179
:1036F00071C18C2F28C101117EC18C2F2AC18C2F42
:1037000086958695837090E0009719F0019761F097
:10371000DDC1112321F08D2F9C2F937002C080E01A
:1037200090E00E94F417E2C1112321F08D2F9C2F0D
:10373000937002C080E090E00E940A18D7C1112364
:10374000F9F0D53F51F0D63F71F0D43FA9F4809104
:10375000DC039091DD0381600BC08091DC039091CC
:10376000DD03826005C08091DC039091DD038460FD
:103770009093DD038093DC038D2F0E94D3261EC01F
:10378000D53F51F0D63F71F0D43FA9F48091DC03CE
:103790009091DD038E7F0BC08091DC039091DD035F
:1037A0008D7F05C08091DC039091DD038B7F90932A
:1037B000DD038093DC038D2F0E943B270E94C027EE
:1037C00095C18C2F837009F050C011118BC18D2FC2
:1037D000829586958770880F880F9D2F9F70892E00
:1037E000912CA12CB12C082E04C0880C991CAA1C69
:1037F000BB1C0A94D2F7D4FF14C00FE010E020E005
:1038000030E0B901A80104C0440F551F661F771F9F
:103810008A95D2F7CB01BA01609570958095909505
:1038200003C060E070E0CB01C695C695C370D0E0E0
:10383000C230D10561F0C330D10581F06829792902
:103840008A299B29219771F00E94C9214BC16829BF
:1038500079298A299B290E94DB2144C10E94C92120
:10386000C501B4010E94B7213DC1112319F08C2F6D
:10387000817001C08695882309F434C18D2F82950B
:1038800086958770880F880F9D2F9F70892E912CA9
:10389000A12CB12C082E04C0880C991CAA1CBB1C9E
:1038A0000A94D2F7D4FF14C00FE010E020E030E01B
:1038B000B901A80104C0440F551F661F771F8A95E0
:1038C000D2F7CB01BA01609570958095909503C0B1
:1038D00060E070E0CB01C695C695C3704C2F50E0F8
:1038E0004230510569F04330510589F06829792942
:1038F0008A299B294130510571F00E948E22F2C025
:10390000682979298A299B290E94A022EBC00E945C
:103910008E22C501B4010E947C22E4C08D2F90E06C
:10392000FC01E05EF109E531F10508F04FC0EA570E
:10393000FF4F0C943F35DF708C2F8F71112331F0C6
:103940000E9415228D2F0E94D41AC0C00E943622D8
:103950008D2F0E94DB1ABAC0112339F00111B6C0B5
:103960008C2F8F710E945B22B1C0023008F0AEC074
:10397000F7CF112339F08C2F8F710E941522A6C02A
:103980001123C9F38C2F8F710E9436229FC01123FF
:1039900029F08C2F8F710E94002298C00E94FB2179
:1039A00095C0112349F0CF718C2F0E94152263E03E
:1039B0008C2F0E9487238AC081E00E9490230230CE
:1039C00008F484C082E00E94902380C0112331F06B
:1039D000002389F28D2F0E94661978C0002391F28E
:1039E000D93349F45FEF67EE73E0515060407040A7
:1039F000E1F700C000008D2F0E94751A67C04C2FA0
:103A00004F706D2FC7010E9466070E942A216EC069
:103A1000D23FB1F028F4D03F49F0D13FF9F028C0AF
:103A2000D43FB9F058F0D53F71F022C0112309F40A
:103A300047C09091CC0281E0892708C081E0182717
:103A40001093CC023DC011113BC081E08093CC02A9
:103A500037C0111135C01092CC0232C0112329F0A9
:103A60008091CB02882329F329C0002311F328C0B9
:103A70008091CB020023C1F0882341F09091CC02C9
:103A800081E089278093CC021092CB028D2F1123E5
:103A900019F00E94661914C00E94751A86E0F70199
:103AA00011928A95E9F70CC0882351F0111108C0D2
:103AB0009091CC0281E089278093CC021092CB02B6
:103AC0004C2F4F706D2FC7010E94C70BF8E0AF1647
:103AD000B10441F05CF04AE0A41AB10852E0A51626
:103AE000B10420F40E94D2170E94C50BDD20E1F042
:103AF0000E94832380FD18C0F70112820E947D235B
:103B00000E941522C7010E94A01D0E947D23DF9103
:103B1000CF911F910F91FF90EF90DF90BF90AF90EA
:103B20009F908F900C943622DF91CF911F910F912F
:103B3000FF90EF90DF90BF90AF909F908F9008958F
:103B40000F931F93CF93DF93EC01888199812B8191
:103B50003C81232BB9F09F3F11F48F3F99F0CE01A8
:103B60000E948E08882371F0688179818A810E9481
:103B70005A238C010E94B2220E94B421B801CE01C6
:103B80000E94E21ADF91CF911F910F9108950E9438
:103B900004240E94142480913501909136010E94E2
:103BA0001F250E94AE230E9466280E94C02780E045
:103BB00090E00E94F41780E090E00C940A180E94B4
:103BC000F1230C94C71D0E944F23E92FE295EF705B
:103BD000F0E03297EE30F105B0F4E556FF4F0C946B
:103BE0003F35803F91F018F4803E68F40EC0843F6A
:103BF00051F40BC0803E48F0813F29F406C093FB8E
:103C0000882780F9089580E0089581E00895CF9392
:103C1000DF9300D000D01F92CDB7DEB70F900F908A
:103C20000F900F900F90DF91CF910895CF93DF9376
:103C300000D000D000D0CDB7DEB726960FB6F894EE
:103C4000DEBF0FBECDBFDF91CF9108951F93CF93FD
:103C5000DF93C091CD0216E08091CE02C81799F093
:103C6000D0E01C9FF0011D9FF00D1124E153FD4F8A
:103C70004081518162817381848195810E94161EE9
:103C80002196C770E9CFDF91CF911F9108954091A0
:103C9000FF02509100036091010370910203809133
:103CA0000303909104030C94161E809104038295E3
:103CB0008F7009F054C080910103882309F44FC02C
:103CC0008091CD02A091CE026091FF02709100031D
:103CD0004091020350910303B6E08A1709F43FC0F4
:103CE00090E041155105C1F17F3F11F46F3FA1F103
:103CF000B89FF001B99FF00D1124E153FD4F2181D0
:103D000072132AC02081621327C02281211124C08E
:103D1000238134812417350710F421503109241BE5
:103D2000350B283C3105C0F4209104032F7020612D
:103D30002093040326E0289FF001299FF00D112411
:103D4000EC52FD4F80818F70806180838FEF92E015
:103D50000E94A01D0C94261E01968770BECF089568
:103D6000CF92DF92EF92FF920F931F93CF93DF9347
:103D7000CDB7DEB762970FB6F894DEBF0FBECDBFEA
:103D80008C0185E0F801DE011D9601900D928A9567
:103D9000E1F7D8014C9111965C91119712966C91B4
:103DA00012971396CD90DC9014973091FF0270918A
:103DB00000038091020390910303009709F46BC103
:103DC0007F3F19F43F3F09F466C1E0900103EE2004
:103DD00009F4C0C020910403C816D90628F0F601E2
:103DE000E81BF90BCF0104C0809590958C0D9D1DAB
:103DF000FF24F394883C910578F0F12C207F09F0A2
:103E0000C6C07C2DD98AC88A89890E94071E8FEF77
:103E100092E00E94A01DB1C0822F807F09F046C0B1
:103E2000751314C0341312C0611110C02F702061BB
:103E3000209304030E94471E8FEF92E00E94A01D72
:103E400080910403D80115968C932EC0CD2819F1CA
:103E50005F3F11F44F3FF9F0F62E61111CC08091C5
:103E6000CD022091CE0236E0821709F45AC090E0CC
:103E7000389FF001399FF00D1124E153FD4F7181FE
:103E8000571306C07081471303C07281711103C0BC
:103E900001968770E9CFF62E662309F427C1809139
:103EA0000403816080930403F12C20C1751308C0C2
:103EB000341306C0611104C080910403D801C3C04B
:103EC0004D875E878D859E856A8B0E94E31D6A897A
:103ED0008823E1F16623D1F120910403822F82959A
:103EE0008F7090E0029774F08091FF029091000330
:103EF00098878F831986DB86CA862C87CE01079622
:103F00000E94A01D86E0F801AFEFB2E001900D9293
:103F10008A95E1F70E94551E0E94471EFF24F394E4
:103F2000E5C04D875E878D859E850E944F23292F92
:103F300022952F7030E0223031050CF0CBC09F70FD
:103F400009F0C5C0805E883008F4D0C0C8010E9466
:103F5000A01DE4CFC816D90608F453C0F601E81B2B
:103F6000F90BCF01883C910508F450C0F12C7C2D51
:103F7000D98AC88A89890E94071EEFEFF2E086E09D
:103F8000DF011D928A95E9F70E94471EAFC07513A5
:103F900014C0341312C0611110C080910403F801E1
:103FA0008583C8010E94A01D86E0EFEFF2E0DF01EB
:103FB0001D928A95E9F7FE2C99C04D875E878D8505
:103FC0009E856A8B0E94E31D6A89882309F4BECF0F
:103FD000662309F4BBCF20910403822F82958F7052
:103FE00090E002970CF48ECF8091FF029091000335
:103FF0009A8389831B82DD82CC822E83CE01019637
:104000007FCF809590958C0D9D1DACCFF62E6623AD
:1040100009F49CCF75132EC034132CC020910403D7
:1040200020FD1FC0822F82958F70D9F0D801159680
:104030002C9315978F3049F08F5F982F9295907F32
:10404000822F8F70892B15968C93C8010E94A01D1A
:1040500086E0F801AFEFB2E001900D928A95E1F7AA
:1040600093CF86E0F801AFEFB2E001900D928A9510
:10407000E1F73CC04D875E878D859E850E94E31DDC
:10408000811140CF80910403816080930403C801B3
:104090000E94A01D2BC0662309F458CF4D875E8770
:1040A0008D859E850E94E31DF82E882309F44ECF4E
:1040B00086E0F801AFEFB2E001900D928A95E1F74A
:1040C0008FEF92E00E9454190E94551E5DCF81111E
:1040D00039CF0CC0243031050CF038CF9F7009F473
:1040E00031CFF8019581907F09F02CCF8F2D62960A
:1040F0000FB6F894DEBF0FBECDBFDF91CF911F91F9
:104100000F91FF90EF90DF90CF9008951F93CF9382
:10411000DF93CDB7DEB72C970FB6F894DEBF0FBE96
:10412000CDBF4F83588769877A878B879C87CE015D
:1041300007960E94B01E882369F08F8198852A8592
:104140003B85232BF1F19F3F09F063C08F3F09F0BE
:1041500060C037C086E0FE013796DE0111960190FF
:104160000D928A95E1F76F817885EA85FB85309716
:1041700041F17F3F11F46F3F21F12091CE0230E0F9
:10418000C9010196877099274091CD0250E08417AC
:10419000950709F447C069837A83FD83EC8396E031
:1041A000929FD001939FB00D1124A153BD4FFE01EA
:1041B000319601900D929A95E1F78093CE020E947C
:1041C000261E16E08091CD029091CE028917C1F192
:1041D000189FC001112481539D4F0E94B01E882357
:1041E00079F1E091CD021E9FF0011124E153FD4FC2
:1041F0004081518162817381848195810E94161E64
:104200008091CD0290E00196877099278093CD022E
:10421000D9CF4F81588569857A858B859C850E9489
:10422000161ECFCF0E94DF1D1092CE021092CD023B
:10423000EFEFF2E086E0DF011D928A95E9F7C1CF4A
:104240002C960FB6F894DEBF0FBECDBFDF91CF9195
:104250001F910895EF92FF920F931F93CF93DF93D7
:104260008C01892B09F46CC0F12CEE24E394E80155
:104270002196F8018491843740F4843008F051C0CD
:10428000813081F0823019F15BC0853709F444C078
:10429000A8F19CE7980F903708F052C08F770E94E2
:1042A000751A41C00E5F1F4FFE01C49180E28C0F52
:1042B000883048F4C7708E2D01C0880FCA95EAF780
:1042C0000E94072414C08C2F0E9466192DC00E5F17
:1042D0001F4FFE01C49180E28C0F883058F4C770E4
:1042E0008E2D01C0880FCA95EAF70E940D240E9406
:1042F000AE231AC08C2F0E94751A16C00E5F1F4F76
:10430000FE01C491CC2381F08FE99FE00197F1F782
:1043100000C00000C150F6CF0E5F1F4FFE01F490A9
:1043200003C00E9466198E018F2D882309F49FCF48
:10433000EFE9FFE03197F1F700C000008150F5CFC1
:10434000DF91CF911F910F91FF90EF900895089505
:104350000E94A7216093400370934103809342031E
:10436000909343030C94C71D08950C94A8210F93B8
:104370001F9300914003109141032091420330911B
:104380004303602B712B822B932B1F910F910C9465
:10439000A8210F931F930091400310914103209196
:1043A00042033091430360237123822393231F919F
:1043B0000F910C94A8210F931F930091400310912B
:1043C00041032091420330914303602771278227E4
:1043D00093271F910F910C94A8210C94BC070E9465
:1043E000ED2160933C0370933D0380933E039093D3
:1043F0003F030C94C71D60E070E0CB010C94EF21EB
:104400000F931F9341E050E060E070E08A019B0150
:1044100004C0000F111F221F331F8A95D2F7C90154
:10442000B8011F910F910C94EF210F931F9341E05E
:1044300050E060E070E004C0440F551F661F771F16
:104440008A95D2F780913C0390913D03A0913E0361
:10445000B0913F038A019B01082B192B2A2B3B2B80
:10446000C901B8011F910F910C94EF210F931F9375
:1044700041E050E060E070E004C0440F551F661F4B
:10448000771F8A95D2F740955095609570958091E9
:104490003C0390913D03A0913E03B0913F038A01FC
:1044A0009B01082319232A233B23C901B8011F912B
:1044B0000F910C94EF210F931F9341E050E060E0C7
:1044C00070E004C0440F551F661F771F8A95D2F70E
:1044D00080913C0390913D03A0913E03B0913F0336
:1044E0008A019B01082719272A273B27C901B80100
:1044F0001F910F910C94EF210F931F9300913C0398
:1045000010913D0320913E0330913F03602B712BAE
:10451000822B932B1F910F910C94EF210F931F93DC
:1045200000913C0310913D0320913E0330913F03E5
:1045300060237123822393231F910F910C94EF2109
:104540000F931F9300913C0310913D0320913E0374
:1045500030913F0360277127822793271F910F9186
:104560000C94EF210895292F220F920F990F890F94
:10457000A82FA695A695A695877051E001C0550F66
:104580008A95EAF785E0A89FD001112420E030E069
:1045900070E0F901EA0FFB1FEB5FFC4F4081CB019C
:1045A000022E02C0969587950A94E2F781709927AA
:1045B000819584278523842780832F5F3F4F253073
:1045C000310539F70895292F220F920F990F890F7E
:1045D000682F669566956695982F977085E0689F19
:1045E000B001112440E050E080E0FA01E60FF71F2F
:1045F000EB5FFC4F208130E0092E02C036952795F5
:104600000A94E2F721703327042E01C0220F0A9486
:10461000EAF7822B4F5F5F4F4530510531F7089520
:10462000CF92DF92EF92FF920F931F93CF93DF937E
:104630008C01C0904003D0904103E0904203F09081
:10464000430380913C0390913D03A0913E03B091C0
:104650003F03C82AD92AEA2AFB2ACFE1D0E0D701B2
:10466000C6010C2E04C0B695A795979587950A9418
:10467000D2F780FF06C0B8018C2F0E94E20B019791
:1046800021F4219760F780E001C08C2FDF91CF915A
:104690001F910F91FF90EF90DF90CF900895CF93EF
:1046A000DF93EC010E941023BE010E94E20BDF9118
:1046B000CF9108951F93CF93DF93EB019091CA029E
:1046C000992321F0CB010E944F2313C0882349F086
:1046D000CB010E941023182F682FCE010E94B32215
:1046E00004C0CB010E94E322182FBE01812F0E943B
:1046F000E20BDF91CF911F9108958091440385953E
:10470000859585950895809144038770089598E074
:10471000899F90011124262B209344030C94152289
:10472000209144038095822380934403982F9770AF
:1047300069F430E0482F082E000C550B241735077C
:1047400029F08595859585950C943622089590914C
:104750004403977081E009F480E00895E091350109
:10476000F0913601809168038083E0913501F091EA
:104770003601908180916703892B8083E091350118
:10478000F0913601908180916603892B808380911E
:104790004503882381F0E0913501F0913601908145
:1047A000892B808380913501909136010E94AD2440
:1047B00081111092450380913501909136010C943E
:1047C000DE1780916803089590916803892B809388
:1047D0006803089580959091680389238093680306
:1047E0000895109268030895809167030895909149
:1047F0006703892B809367030895809590916703E1
:104800008923809367030895109267030895909118
:104810006603892B809366030895809590916603C3
:104820008923809366030895109266030895809308
:104830004503089510924503089580914503089516
:10484000CF92DF92EF92FF926C01EE24FF24C1140D
:10485000D104E104F10421F0C701B60120E101C057
:1048600020E0C72ED82EE92EFF24C114D104E10484
:10487000F10419F0285FC701B6016B017C0154E017
:10488000F694E794D794C7945A95D1F7C114D104FC
:10489000E104F10419F02C5FC701B6016B017C0142
:1048A00042E0F694E794D794C7944A95D1F7C1149F
:1048B000D104E104F10419F02E5FC701B601DC0157
:1048C000CB01B695A79597958795892B8A2B8B2B2E
:1048D00009F02F5F822FFF90EF90DF90CF90089527
:1048E0006DEE7EEF80E090E00E94773560E082E040
:1048F00090E00E94593560E083E090E00E945935D5
:1049000060E084E090E00E94593560E085E090E04E
:104910000E94593540E050E0BA0188E090E00C94E4
:104920006B3580E090E00E94533521E08D3E9E4F34
:1049300009F020E0822F089582E090E00C94453544
:1049400083E090E00C94453584E090E00C9445358C
:10495000682F84E090E00C945935FC0131969C015D
:10496000205E3F4F80E0919191118F5FE217F30736
:10497000D1F708959C01FC0132969FEF80E04191B0
:10498000461789F09F3F19F4411101C0982F8F5F9E
:104990008E31A9F79F3F39F0F901E90FF11D97FD1D
:1049A000FA95628308950895FC01329680962081DD
:1049B000261301C010823196E817F907C1F7089550
:1049C000262F2695269526952F3168F4FC01E20FB7
:1049D000F11D677021E030E001C0220F6A95EAF70F
:1049E0008181282B21830895262F269526952695AB
:1049F0002F3170F4FC01E20FF11D677021E030E00F
:104A000001C0220F6A95EAF720958181282321832E
:104A1000089520914601222329F02091E20327FDE9
:104A20000C94E0240C94BA2420914601222329F00E
:104A30002091E20327FD0C94F4240C94D424FC016F
:104A4000319680961192E817F907E1F708950895D5
:104A50000C9427258091E803843049F110926A0371
:104A600020E488E190E00FB6F894A8958093600068
:104A70000FBE2093600080E00E94C50B0E94282595
:104A800083B7817F846083BF83B7816083BF78945D
:104A9000889583B78E7F83BF0FB6F894A8958091D1
:104AA0006000886180936000109260000FBE0895DE
:104AB0000895CF930E94E2040E9432050E94582577
:104AC000C0E08C2F0E94A005811104C0CF5FCE30C2
:104AD000C1F701C081E0CF91089508950C946D2530
:104AE0000E94DF1D0E94D2170E94C50B0C946E25F8
:104AF0001F920F920FB60F9211248F939F93AF9333
:104B0000BF9380916A03811113C08091DE0390915D
:104B1000DF03A091E003B091E1034196A11DB11D17
:104B20008093DE039093DF03A093E003B093E1034F
:104B3000BF91AF919F918F910F900FBE0F901F90DB
:104B4000189582E084BD93E095BD9AEF97BD809360
:104B50006E0008952FB7F8948091DE039091DF03E3
:104B6000A091E003B091E1032FBF0895CF92DF92AF
:104B7000EF92FF920F931F932FB7F8944091DE03AB
:104B80005091DF036091E0037091E1032FBF6A0150
:104B90007B01EE24FF248C0120E030E0C016D1061A
:104BA000E206F30610F4415051099A01281B390B13
:104BB000C9011F910F91FF90EF90DF90CF90089562
:104BC00078941F920F920FB60F9211248F939F9398
:104BD000AF93BF938091DE039091DF03A091E00338
:104BE000B091E1030196A11DB11D8093DE03909366
:104BF000DF03A093E003B093E103BF91AF919F91D6
:104C00008F910F900FBE0F901F901895F89481E030
:104C10008093E00080E28093D800E9ECF0E010821D
:104C20008FE19EE40197F1F700C000001DBA1092D9
:104C300068001CBC10BE1FBA10927A0010926E0061
:104C400010926F0010927100109272001082ECEBC3
:104C5000F0E0108214B817B81AB81DB810BA108254
:104C600015B818B81BB81EB811BA0C94003F0895B7
:104C70000E949124811102C00E9470240E949C24F1
:104C8000809369030E94A42490E09093E3038093AF
:104C9000E2030E94A024682F70E080E090E00C9472
:104CA000B52180916E0380FF0BC060913A0185E0D1
:104CB000689FB001112475956795759567952BC010
:104CC00081FF09C060913A0185E0689FB00111241D
:104CD0007595679520C082FF07C060913A0185E015
:104CE000689FB001112417C090916F039923D1F0F0
:104CF00060913901961788F720913A0185E0289F45
:104D000090011124929FA001939F500D112470E0F7
:104D1000CA010E942B356038710540F46115710598
:104D200039F002C065E070E0862F08958FE708959E
:104D300081E0089580916E0380FF08C06091380182
:104D400070E0759567957595679521C081FF06C0E0
:104D50006091380170E07595679519C082FF04C0B5
:104D60006091380170E010C090916F039923C1F0F9
:104D7000609137019617A0F780913801899FC00193
:104D8000112470E00E942B356038710528F46115FC
:104D9000710521F0862F08958FE7089581E0089529
:104DA00061E070E0F4CF803F21F40E9451268195AC
:104DB00004C0813F29F40E94512680937203089514
:104DC000823F21F40E945126819504C0833F29F43B
:104DD0000E945126809371030895893F19F40E941F
:104DE0009A2605C08A3F31F40E949A2681958093C5
:104DF000730308958B3F21F40E949A26819504C085
:104E00008C3F29F40E949A26809374030895843F6E
:104E100021F480917003816017C0853F21F4809157
:104E20007003826011C0863F21F48091700384601A
:104E30000BC0873F21F480917003886005C0883FD4
:104E400031F48091700380618093700308958D3FE9
:104E500021F480916E0381600BC08E3F21F480911C
:104E60006E03826005C08F3F29F480916E038460D9
:104E700080936E030895803F39F48091720387FF19
:104E80006CC01092720369C0813F29F48091720353
:104E90001816BCF362C090917103823F29F497FF0A
:104EA0005CC01092710359C0833F19F41916CCF3FA
:104EB00054C0893F41F48091730318160CF04DC023
:104EC000109273034AC08A3F29F48091730387FFCD
:104ED00044C0F6CF8B3F39F48091740387FF3DC007
:104EE000109274033AC08C3F29F480917403181611
:104EF000BCF333C0843F21F4809170038E7F17C0D0
:104F0000853F21F4809170038D7F11C0863F21F48D
:104F1000809170038B7F0BC0873F21F480917003D9
:104F2000877F05C0883F31F4809170038F7E809326
:104F3000700313C08D3F21F480916E038E7F0BC0F0
:104F40008E3F21F480916E038D7F05C08F3F29F441
:104F500080916E038B7F80936E038091710381112A
:104F60000EC08091720381110AC080917303811178
:104F700006C080917403811102C010926F030895DE
:104F800080E793E00E94E9170E94AA2590936C03A2
:104F900080936B0308951F93CF93DF9380916B03EE
:104FA00090916C030E94B625AC0190916F039923F8
:104FB00021F020913B0130E006C020916D038AE092
:104FC000289F900111244217530708F47BC0809159
:104FD0007103C0917203D091730310917403811116
:104FE00007C0C1116BC0D11169C0111167C06AC07F
:104FF0009F3F19F09F5F90936F03181624F40E944F
:105000005126809371038091710387FF05C00E9430
:1050100051268195809371031C1624F40E94512619
:10502000809372038091720387FF05C00E9451260E
:10503000819580937203309171033323E1F02091C5
:1050400072032223C1F045EB3403C0011124892FE0
:10505000990F990B009709F481E08093710335EB68
:105060002303C0011124892F990F990B009709F48C
:1050700081E0809372031D1624F40E949A26809387
:1050800073038091730387FF05C00E949A26819560
:1050900080937303111624F40E949A26809374035C
:1050A0008091740387FF05C00E949A2681958093A2
:1050B0007403DF91CF911F910C94C0279F3F09F09B
:1050C00099CFA1CFDF91CF911F910895E0E7F3E051
:1050D00085E0DF011D928A95E9F710926F03109227
:1050E0006E030895833081F128F4813059F08230C5
:1050F000D1F00895853009F449C0B8F1863009F43B
:1051000056C0089580916D03262F30E0280F311D81
:105110002F3F310524F4680F60936D0308958FEFDE
:1051200080936D03089580913B01262F30E0280F76
:10513000311D2F3F310524F4680F60933B01089522
:105140008FEF80933B01089580913A01262F30E044
:10515000280F311D2F3F310524F4680F60933A0169
:1051600008958FEF80933A01089580913901262F99
:1051700030E0280F311D2F3F310524F4680F609374
:10518000390108958FEF8093390108958091380196
:10519000262F30E0280F311D2F3F310524F4680FF2
:1051A0006093380108958FEF8093380108958091BE
:1051B0003701262F30E0280F311D2F3F310524F411
:1051C000680F6093370108958FEF8093370108953A
:1051D000833011F128F4813049F0823091F0089544
:1051E000853081F120F18630C1F1089580916D0301
:1051F000681720F4861B80936D03089510926D0349
:10520000089580913B01681720F4861B80933B0131
:10521000089510923B01089580913A01681720F497
:10522000861B80933A01089510923A010895809167
:105230003901681720F4861B809339010895109274
:105240003901089580913801681720F4861B8093F6
:105250003801089510923801089580913701681738
:1052600020F4861B8093370108951092370108952A
:105270000F931F93873208F04DC08E3108F093C012
:10528000803109F47DC008F5873009F46BC068F4FB
:10529000863009F0A3C080916903817F8E7F80935F
:1052A000690381E0809376039AC08B3009F48FC044
:1052B0008E3009F093C08091690382FB222720F988
:1052C00091E0922790FB82F964C0863109F47FC097
:1052D00088F4813109F082C00E94DF1D8091E203D1
:1052E00087FB222720F991E0922790FB87F9809392
:1052F000E2036DC0893109F46AC08B3109F06EC0D8
:105300008091690381FB222720F991E0922790FB8D
:1053100081F93FC0883309F45AC050F4893209F446
:1053200058C0853309F455C0873209F452C056C0BD
:10533000833409F44EC028F48A3308F44FC08953EB
:1053400033C0883409F04AC00E94DF1D0FEF13ED0F
:1053500020E3015010402040E1F700C000000E940F
:10536000062635C080916903982F9095917090FB27
:1053700080F98093690391112AC0897F877F10C0CB
:105380008091690383FB222720F991E0922790FB0B
:1053900083F9809369039923D1F080916903816037
:1053A0008093690314C08D5141E050E060E070E0EB
:1053B0008A019B0104C0000F111F221F331F8A9511
:1053C000D2F7C901B8010E94B5210E94DF1D81E01A
:1053D00006C061E070E080E090E0F5CF80E01F91D2
:1053E0000F91089580E0089580E008958E518A30ED
:1053F00030F4E82FF0E0E151FE4F8081089580E025
:105400000895CF93C82F80917603813079F018F0FA
:105410008230E9F185C0E0913501F091360180815B
:10542000813169F0823209F07DC009C0E091350117
:10543000F09136018081813111F0823261F48C2F3C
:105440000E94F229811104C08C2F0E9438291DC0AE
:1054500081E090E01AC08C2F0E94F429811114C0C1
:10546000C43179F048F4CB3079F0C03109F05EC036
:1054700082E08093760308C0C93219F0C83321F066
:1054800055C01092760352C081E0817051C0C9327C
:1054900079F108F5C43161F1A0F4C73009F044C0D6
:1054A00010926D0384E180933B01C0933A018CE339
:1054B0008093390188E08093380188E28093370136
:1054C00033C082EE8C0F863078F58C2F0E94F6293F
:1054D0008093750329C0CE34E9F020F4CB3421F554
:1054E0006AE013C0C13579F0C235F1F461E00DC056
:1054F00080917503882319F01092750315C081E01F
:105500008093760315C061E006C0809175030E9408
:1055100072280AC06AE0809175030E94E82804C0DE
:105520001092760380E004C081E002C080E0ADCF3D
:10553000CF9108958091970308950F931F93CF9370
:10554000DF9300D01F92CDB7DEB78C010E94152DDE
:10555000823011F0843019F593E099831B830A831C
:105560009093E9008FEF9091E800815095FD06C07F
:1055700095ED9A95F1F700008111F5CF8091E80043
:1055800085FF0DC040E050E063E070E0CE01019681
:105590000E94322D8091E8008E778093E8000F9072
:1055A0000F900F90DF91CF911F910F910895CF939E
:1055B000DF9300D01F92CDB7DEB72091E8032430EF
:1055C00031F522E02983805891099B838A8383E007
:1055D0008093E9008FEF9091E800815095FD06C01F
:1055E00095ED9A95F1F700008111F5CF8091E800D3
:1055F00085FF0DC040E050E063E070E0CE01019611
:105600000E94322D8091E8008E778093E8000F9001
:105610000F900F90DF91CF910895CF93DF93EC011E
:105620000E94152D823011F08430F9F482E08093CD
:10563000E9009FEF8091E800915085FD06C085ED5F
:105640008A95F1F700009111F5CF8091E80085FF70
:105650000CC040E050E065E070E0CE010E94322DC9
:105660008091E8008E778093E800DF91CF910895D4
:10567000CF93DF93EC010E94152D823019F0843016
:1056800009F047C0809146018823E1F08091E20350
:1056900087FF18C084E08093E9008FEF9091E800C5
:1056A000815095FD06C095E19A95F1F700008111B2
:1056B000F5CF8091E80085FF2CC040E050E060E22B
:1056C00070E017C081E08093E9008FEF9091E800CF
:1056D000815095FD06C095ED9A95F1F70000811176
:1056E000F5CF8091E80085FF14C040E050E068E00D
:1056F00070E0CE010E94322D8091E8008E77809379
:10570000E80080E2FE01A7E7B3E001900D928A95E0
:10571000E1F7DF91CF9108958091E703811109C0EE
:105720000E94C72E0E94242F8091E2008460809303
:10573000E20008951092E7030895089508950C94E7
:10574000702542E061EC81E00E94412E42E061EC74
:1057500082E00E94412E42E061EC83E00E94412EF3
:1057600042E261EC84E00C94412E8091EA038330A4
:1057700009F455C030F4813071F0823009F48EC0E4
:1057800008958A3009F47AC08B3009F460C08930FA
:1057900009F09CC020C08091E903813A09F096C0CD
:1057A0008091E800877F8093E8008091ED039091DD
:1057B000EE03892B21F460E287E793E003C060E009
:1057C00080E090E070E00E947D2D8091E8008B7772
:1057D0008093E80008958091E903813209F076C052
:1057E0008091ED039091EE03009719F0039709F073
:1057F0006DC08091E800877F8093E8008091E80089
:1058000082FD05C08091E8038111F8CF5FC08091CF
:10581000F100809397038091E8008B7753C08091CB
:10582000E903813A09F052C08091ED039091EE03B3
:10583000892B09F04BC08091E800877F8093E800B6
:105840008091E80080FFFCCF8091460136C08091B6
:10585000E9038132D9F58091ED039091EE03892B14
:10586000A9F58091E800877F8093E8000E94762E5A
:105870008091EB03809346010C94DF1D8091E90336
:10588000813221F58091E800877F8093E8000E94B3
:10589000762E8091EC038093980308958091E9031C
:1058A000813AA1F48091E800877F8093E80080919D
:1058B000E80080FFFCCF809198038093F1008091F5
:1058C000E8008E778093E8000C94762E089584B7D4
:1058D000877F84BF0FB6F894A89580916000886197
:1058E00080936000109260000FBE80E8809361009A
:1058F000109261000E9421180E94C72E0E94242F3E
:105900008091E20084608093E20078940E94B33139
:105910000E9425188CE391E00E94CD178091E80346
:10592000853069F40E942A258091E6038823B1F32B
:105930000E945925882391F30E941C2DEFCF0E94CD
:1059400033180E944B15EACF0C94A62C292F33272D
:1059500023303105C9F064F42130310581F0223063
:10596000310509F049C08DE690E029E436E048C0F1
:105970002132310521F12232310571F13DC082E140
:1059800090E026EB36E03CC099278130910571F01C
:105990002CF4892B89F5E5E4F6E00DC08230910501
:1059A00041F0039749F5EFE0F6E005C0EDE2F6E0DF
:1059B00002C0E5E1F6E0849190E09F0121C06430EF
:1059C0007105D0F4660F771FFB01EB5FFD4F20815F
:1059D000318189E090E014C06430710568F4FB0106
:1059E000EE0FFF1FE350FE4F20813181FB01E75096
:1059F000FE4F808190E004C080E090E020E030E045
:105A0000FA013183208308950895CF93C82F0E940F
:105A1000042DC0939903CF9108958091E8038430B9
:105A200011F081E0089582E0089580919903811139
:105A300002C00C940D2D089580E189BD82E189BDDD
:105A400009B400FEFDCF8091D8008F7D8093D800EF
:105A50008091E00082608093E0008091E00081FD11
:105A6000FCCF0895CF92DF92EF92FF920F931F9396
:105A7000CF93DF93EC018B016A010E94952E811177
:105A800033C0C114D10439F0F60180819181081B23
:105A9000190BC80FD91FE12CF12C0115110519F1B3
:105AA0008091E80085FD16C08091E8008E77809394
:105AB000E800C114D10449F0F60180819181E80E1B
:105AC000F91EF182E08285E00FC00E94952E8823A6
:105AD00021F30AC089918093F10001501109FFEF71
